{
  "contractName": "queryMeta",
  "abi": [
    {
      "constant": true,
      "inputs": [
        {
          "name": "",
          "type": "uint256"
        }
      ],
      "name": "users",
      "outputs": [
        {
          "name": "name",
          "type": "string"
        },
        {
          "name": "id",
          "type": "uint256"
        },
        {
          "name": "roleNum",
          "type": "uint256"
        }
      ],
      "payable": false,
      "stateMutability": "view",
      "type": "function"
    },
    {
      "constant": true,
      "inputs": [],
      "name": "usersCount",
      "outputs": [
        {
          "name": "",
          "type": "uint256"
        }
      ],
      "payable": false,
      "stateMutability": "view",
      "type": "function"
    },
    {
      "constant": true,
      "inputs": [
        {
          "name": "",
          "type": "uint256"
        }
      ],
      "name": "DB_login_infos",
      "outputs": [
        {
          "name": "username",
          "type": "string"
        },
        {
          "name": "password",
          "type": "string"
        }
      ],
      "payable": false,
      "stateMutability": "view",
      "type": "function"
    },
    {
      "constant": true,
      "inputs": [],
      "name": "EMRMetasCount",
      "outputs": [
        {
          "name": "",
          "type": "uint256"
        }
      ],
      "payable": false,
      "stateMutability": "view",
      "type": "function"
    },
    {
      "constant": true,
      "inputs": [
        {
          "name": "",
          "type": "uint256"
        }
      ],
      "name": "EMRMetas",
      "outputs": [
        {
          "name": "owner",
          "type": "uint256"
        },
        {
          "name": "timestamp",
          "type": "string"
        },
        {
          "name": "allowedRole",
          "type": "uint256"
        }
      ],
      "payable": false,
      "stateMutability": "view",
      "type": "function"
    },
    {
      "inputs": [],
      "payable": false,
      "stateMutability": "nonpayable",
      "type": "constructor"
    },
    {
      "anonymous": false,
      "inputs": [
        {
          "indexed": true,
          "name": "_owner",
          "type": "uint256"
        }
      ],
      "name": "updateMetaEvent",
      "type": "event"
    },
    {
      "constant": true,
      "inputs": [],
      "name": "getDB_login_infos",
      "outputs": [
        {
          "name": "username",
          "type": "string"
        },
        {
          "name": "password",
          "type": "string"
        }
      ],
      "payable": false,
      "stateMutability": "view",
      "type": "function"
    },
    {
      "constant": true,
      "inputs": [
        {
          "name": "_id",
          "type": "uint256"
        }
      ],
      "name": "getMeta",
      "outputs": [
        {
          "name": "owner",
          "type": "uint256"
        },
        {
          "name": "timeStamp",
          "type": "string"
        },
        {
          "name": "allowedRole",
          "type": "uint256"
        }
      ],
      "payable": false,
      "stateMutability": "view",
      "type": "function"
    },
    {
      "constant": false,
      "inputs": [
        {
          "name": "_owner",
          "type": "uint256"
        },
        {
          "name": "_timestamp",
          "type": "string"
        },
        {
          "name": "_allowedRole",
          "type": "uint256"
        }
      ],
      "name": "addMetas",
      "outputs": [],
      "payable": false,
      "stateMutability": "nonpayable",
      "type": "function"
    },
    {
      "constant": false,
      "inputs": [
        {
          "name": "_owner",
          "type": "uint256"
        },
        {
          "name": "_timestamp",
          "type": "string"
        },
        {
          "name": "_allowedRole",
          "type": "uint256"
        }
      ],
      "name": "updateMetas",
      "outputs": [],
      "payable": false,
      "stateMutability": "nonpayable",
      "type": "function"
    }
  ],
  "bytecode": "0x60806040523480156200001157600080fd5b50620000666040805190810160405280600581526020017f416c696365000000000000000000000000000000000000000000000000000000815250610378600162000239640100000000026401000000009004565b620000b96040805190810160405280600381526020017f426f6200000000000000000000000000000000000000000000000000000000008152506057600462000239640100000000026401000000009004565b6200010c607b6040805190810160405280600881526020017f32303138313131380000000000000000000000000000000000000000000000008152506001620002b7640100000000026401000000009004565b620001606101c86040805190810160405280600881526020017f32303138313131390000000000000000000000000000000000000000000000008152506004620002b7640100000000026401000000009004565b60408051908101604052806040805190810160405280600481526020017f726f6f740000000000000000000000000000000000000000000000000000000081525081526020016040805190810160405280600881526020017f64616e67353637380000000000000000000000000000000000000000000000008152508152506002600080815260200190815260200160002060008201518160000190805190602001906200021092919062000334565b5060208201518160010190805190602001906200022f92919062000334565b50905050620003e3565b6004600081548092919060010191905055506060604051908101604052808481526020018381526020018281525060036000600454815260200190815260200160002060008201518160000190805190602001906200029a92919062000334565b506020820151816001015560408201518160020155905050505050565b6001600081548092919060010191905055506060604051908101604052808481526020018381526020018281525060008060015481526020019081526020016000206000820151816000015560208201518160010190805190602001906200032192919062000334565b5060408201518160020155905050505050565b828054600181600116156101000203166002900490600052602060002090601f016020900481019282601f106200037757805160ff1916838001178555620003a8565b82800160010185558215620003a8579182015b82811115620003a75782518255916020019190600101906200038a565b5b509050620003b79190620003bb565b5090565b620003e091905b80821115620003dc576000816000905550600101620003c2565b5090565b90565b610e6380620003f36000396000f300608060405260043610610099576000357c0100000000000000000000000000000000000000000000000000000000900463ffffffff1680630e6d263e1461009e578063365b98b21461011b57806336dac2cc146101cf5780633e968bdf146102835780636ba13a8214610300578063d689005d1461032b578063eae38c541461043d578063f9ea838914610539578063feb6895914610564575b600080fd5b3480156100aa57600080fd5b5061011960048036038101908080359060200190929190803590602001908201803590602001908080601f016020809104026020016040519081016040528093929190818152602001838380828437820191505050505050919291929080359060200190929190505050610618565b005b34801561012757600080fd5b50610146600480360381019080803590602001909291905050506106cc565b6040518080602001848152602001838152602001828103825285818151815260200191508051906020019080838360005b83811015610192578082015181840152602081019050610177565b50505050905090810190601f1680156101bf5780820380516001836020036101000a031916815260200191505b5094505050505060405180910390f35b3480156101db57600080fd5b506101fa6004803603810190808035906020019092919050505061078e565b6040518084815260200180602001838152602001828103825284818151815260200191508051906020019080838360005b8381101561024657808201518184015260208101905061022b565b50505050905090810190601f1680156102735780820380516001836020036101000a031916815260200191505b5094505050505060405180910390f35b34801561028f57600080fd5b506102fe60048036038101908080359060200190929190803590602001908201803590602001908080601f016020809104026020016040519081016040528093929190818152602001838380828437820191505050505050919291929080359060200190929190505050610906565b005b34801561030c57600080fd5b50610315610981565b6040518082815260200191505060405180910390f35b34801561033757600080fd5b5061035660048036038101908080359060200190929190505050610987565b604051808060200180602001838103835285818151815260200191508051906020019080838360005b8381101561039a57808201518184015260208101905061037f565b50505050905090810190601f1680156103c75780820380516001836020036101000a031916815260200191505b50838103825284818151815260200191508051906020019080838360005b838110156104005780820151818401526020810190506103e5565b50505050905090810190601f16801561042d5780820380516001836020036101000a031916815260200191505b5094505050505060405180910390f35b34801561044957600080fd5b50610452610adb565b604051808060200180602001838103835285818151815260200191508051906020019080838360005b8381101561049657808201518184015260208101905061047b565b50505050905090810190601f1680156104c35780820380516001836020036101000a031916815260200191505b50838103825284818151815260200191508051906020019080838360005b838110156104fc5780820151818401526020810190506104e1565b50505050905090810190601f1680156105295780820380516001836020036101000a031916815260200191505b5094505050505060405180910390f35b34801561054557600080fd5b5061054e610c4a565b6040518082815260200191505060405180910390f35b34801561057057600080fd5b5061058f60048036038101908080359060200190929190505050610c50565b6040518084815260200180602001838152602001828103825284818151815260200191508051906020019080838360005b838110156105db5780820151818401526020810190506105c0565b50505050905090810190601f1680156106085780820380516001836020036101000a031916815260200191505b5094505050505060405180910390f35b6000600190505b60015481111515610699578360008083815260200190815260200160002060000154141561068c57826000808381526020019081526020016000206001019080519060200190610670929190610d12565b5081600080838152602001908152602001600020600201819055505b808060010191505061061f565b837f4fdc55c4adedf850bc3a09c67ac316fe2a76bb94352f43c0b36d758f14df111560405160405180910390a250505050565b6003602052806000526040600020600091509050806000018054600181600116156101000203166002900480601f0160208091040260200160405190810160405280929190818152602001828054600181600116156101000203166002900480156107785780601f1061074d57610100808354040283529160200191610778565b820191906000526020600020905b81548152906001019060200180831161075b57829003601f168201915b5050505050908060010154908060020154905083565b60006060600080600190505b600154811115156108b757846000808381526020019081526020016000206000015414156108aa576000808281526020019081526020016000206000015460008083815260200190815260200160002060010160008084815260200190815260200160002060020154818054600181600116156101000203166002900480601f0160208091040260200160405190810160405280929190818152602001828054600181600116156101000203166002900480156108985780601f1061086d57610100808354040283529160200191610898565b820191906000526020600020905b81548152906001019060200180831161087b57829003601f168201915b505050505091509350935093506108fe565b808060010191505061079a565b6000808191506040805190810160405280600181526020017f3000000000000000000000000000000000000000000000000000000000000000815250908090509350935093505b509193909250565b60016000815480929190600101919050555060606040519081016040528084815260200183815260200182815250600080600154815260200190815260200160002060008201518160000155602082015181600101908051906020019061096e929190610d92565b5060408201518160020155905050505050565b60045481565b6002602052806000526040600020600091509050806000018054600181600116156101000203166002900480601f016020809104026020016040519081016040528092919081815260200182805460018160011615610100020316600290048015610a335780601f10610a0857610100808354040283529160200191610a33565b820191906000526020600020905b815481529060010190602001808311610a1657829003601f168201915b505050505090806001018054600181600116156101000203166002900480601f016020809104026020016040519081016040528092919081815260200182805460018160011615610100020316600290048015610ad15780601f10610aa657610100808354040283529160200191610ad1565b820191906000526020600020905b815481529060010190602001808311610ab457829003601f168201915b5050505050905082565b6060806002600080815260200190815260200160002060000160026000808152602001908152602001600020600101818054600181600116156101000203166002900480601f016020809104026020016040519081016040528092919081815260200182805460018160011615610100020316600290048015610b9f5780601f10610b7457610100808354040283529160200191610b9f565b820191906000526020600020905b815481529060010190602001808311610b8257829003601f168201915b50505050509150808054600181600116156101000203166002900480601f016020809104026020016040519081016040528092919081815260200182805460018160011615610100020316600290048015610c3b5780601f10610c1057610100808354040283529160200191610c3b565b820191906000526020600020905b815481529060010190602001808311610c1e57829003601f168201915b50505050509050915091509091565b60015481565b6000602052806000526040600020600091509050806000015490806001018054600181600116156101000203166002900480601f016020809104026020016040519081016040528092919081815260200182805460018160011615610100020316600290048015610d025780601f10610cd757610100808354040283529160200191610d02565b820191906000526020600020905b815481529060010190602001808311610ce557829003601f168201915b5050505050908060020154905083565b828054600181600116156101000203166002900490600052602060002090601f016020900481019282601f10610d5357805160ff1916838001178555610d81565b82800160010185558215610d81579182015b82811115610d80578251825591602001919060010190610d65565b5b509050610d8e9190610e12565b5090565b828054600181600116156101000203166002900490600052602060002090601f016020900481019282601f10610dd357805160ff1916838001178555610e01565b82800160010185558215610e01579182015b82811115610e00578251825591602001919060010190610de5565b5b509050610e0e9190610e12565b5090565b610e3491905b80821115610e30576000816000905550600101610e18565b5090565b905600a165627a7a72305820c33db8308a8d664c782554e9fb4d7d0afeb47a98ec63b964efc3633f79fcc6f80029",
  "source": "pragma solidity  ^0.4.24;\n\ncontract queryMeta {\n\n    //Model metadata of EMR\n    struct EMRMeta {\n        uint owner; //patient ID; public will have getter and setter function automatically\n        string timestamp;\n        uint allowedRole;\n        //struct updateInfo;\n              /* should contain tag to show update or not (modified/origin);\n               * who (has/have) updated;\n               * where modified;\n               * which peers already updated;\n               * some other metadata about dejima;\n               * current state of dejima;\n               */\n        // declare dejimaPeers; //An array to store the peers who share the dejima relating to the metadata\n    }\n\n    //Store EMRMetas\n    mapping (uint => EMRMeta) public EMRMetas;\n    //store EMRMetas count\n    uint public EMRMetasCount;\n\n    /*\n       struct DB_login_info model the login info to access database (Dejima)\n     */\n    struct DB_login_info{\n      string username;\n      string password;\n    }\n\n    //Store DB_login_infos\n    mapping (uint => DB_login_info) public DB_login_infos;\n\n    /*\n       struct User model the user calling this contract.\n     */\n    struct User{\n      string name; //name of doctor or patient\n      uint id;\n      uint roleNum; /*\n                    consider doctor only for the time being:\n                      1 -> doctor\n                      2 -> analyzer\n                      3 -> insurance\n                      4->  patient\n                        */\n    }\n\n    //Store　roles\n    mapping (uint => User) public users;\n    //store EMRMetas count\n    uint public usersCount;\n\n    //update EMRMeta event\n    event updateMetaEvent (\n        uint indexed _owner\n    );\n\n\n    /*\n     * Contructor, will run whenever we deploy the contract to the blockchain\n     * (initialized contract upon migration)\n     * same name as the contract\n    */\n    function queryMeta () public {\n           //initialize users directly\n           //users[0] = User(\"Alice\", 888, 1); //doctor\n           //users[1] = User(\"Bob\", 87, 4); //a patient\n\n           addUser(\"Alice\", 888, 1);//doctor\n           addUser(\"Bob\", 87, 4);//a patient\n\n           //initialize EMRMetas directly\n           //EMRMetas[0] = EMRMeta(123, \"20181118\", 1);\n           //EMRMetas[1] = EMRMeta(456, \"20181119\", 4);\n\n           addMetas(123, \"20181118\", 1);\n           addMetas(456, \"20181119\", 4);\n\n           //initialize the login info to access dejima DB\n           //这里先直接给一个最高权限的root信息，\n           //之后在DB中创建了新的用户和密码之后可以给这块加新用户\n           DB_login_infos[0] = DB_login_info(\"root\", \"dang5678\");\n    }\n\n    function getDB_login_infos() view returns (string username, string password){\n      return (DB_login_infos[0].username, DB_login_infos[0].password);\n    }\n\n\n    //return an object by given patient ID\n    function getMeta(uint _id) view returns(uint owner, string timeStamp, uint allowedRole) {\n      for (uint i = 1; i <= EMRMetasCount; i++)\n      {\n         if(EMRMetas[i].owner == _id)\n                return (EMRMetas[i].owner, EMRMetas[i].timestamp, EMRMetas[i].allowedRole);\n      }\n      return (0,\"0\",0);\n    }\n\n\n    //add a new medical metadata\n    function addMetas (uint _owner, string _timestamp, uint _allowedRole) public{\n        //addMetas　string _timestamp can be get automatically later (solidity date)\n\n        //check role to be allowed to addEMRMetas\n        //require(roles[msg.sender] == 1); //only a doctor can addEMRMetas now\n        //here msg.sender is an address, msg.sender to identify the address of who calling this function\n\n        /********************************************************************************/\n        /*******Here we should consider to add \"medical data\" to cloud (dejima)**********/\n        /********************************************************************************/\n\n        EMRMetasCount ++;\n\n        EMRMetas[EMRMetasCount] = EMRMeta(_owner, _timestamp, _allowedRole);\n\n    }\n\n    //add a new person who belongs a role\n    function addUser (string _name, uint _id, uint _roleNum) private\n    {\n      //check the priviledge to add User\n\n      // add users in the cloud\n\n      usersCount ++;\n\n      users[usersCount] = User(_name, _id, _roleNum);\n\n    }\n\n    //update an existing medical metadata, suppose will change the allowedRole\n    function updateMetas (uint _owner, string _timestamp, uint _allowedRole ) public\n    {\n        //updateMetas　string _timestamp can be get automatically later\n\n        //check role to be allowed to updateEMRMetas\n        //require(roles[msg.sender] == 1); //only a doctor can updateEMRMetas now\n        //here msg.sender is an address, msg.sender to identify the address of who calling this function\n\n        /********************************************************************************/\n        /*******Here we should consider to update \"medical data\" to cloud (dejima)**********/\n        /********************************************************************************/\n\n        for (uint i = 1; i <= EMRMetasCount; i++)\n        {\n           if(EMRMetas[i].owner == _owner)\n           {\n             EMRMetas[i].timestamp = _timestamp;\n             EMRMetas[i].allowedRole = _allowedRole;\n          }\n        }\n\n        // trigger updateMeta　Event\n        updateMetaEvent(_owner);\n    }\n\n    /*deleteEMRMetas string _timestamp can be get automatically later\n    function deleteEMRMetas (uint _owner, string _timestamp) private{\n\n        //check role to be allowed to deleteEMRMetas\n        require(roles[msg.sender] == 1); //only a doctor can deleteEMRMetas now\n\n        /********************************************************************************/\n        /*******Here we should consider to delete \"medical data\" to cloud (dejima)*******/\n        /********************************************************************************/\n\n        /*\n          If a metadata is deleted, the owner ID is assigned to 0\n          (if this, later will need to fresh EMRMetas to remove unuseful EMRMetas)\n\n\n        //search EMRMetas using _owner\n\n        //assign 0 to this _owner field\n\n        //decrement the EMRMetasCount by 1\n\n    }*/\n}\n",
  "sourcePath": "/Users/lichunmiao/Desktop/EMD-BlockDejima/contracts/queryMeta.sol",
  "compiler": {
    "name": "solc",
    "version": "0.4.24+commit.e67f0147.Emscripten.clang"
  },
  "schemaVersion": "2.0.1",
  "updatedAt": "2018-11-26T10:40:14.022Z"
}