{
  "contractName": "queryMeta",
  "abi": [
    {
      "constant": true,
      "inputs": [
        {
          "name": "",
          "type": "uint256"
        }
      ],
      "name": "users",
      "outputs": [
        {
          "name": "name",
          "type": "string"
        },
        {
          "name": "id",
          "type": "uint256"
        },
        {
          "name": "roleNum",
          "type": "uint256"
        }
      ],
      "payable": false,
      "stateMutability": "view",
      "type": "function"
    },
    {
      "constant": true,
      "inputs": [],
      "name": "usersCount",
      "outputs": [
        {
          "name": "",
          "type": "uint256"
        }
      ],
      "payable": false,
      "stateMutability": "view",
      "type": "function"
    },
    {
      "constant": true,
      "inputs": [],
      "name": "EMRMetasCount",
      "outputs": [
        {
          "name": "",
          "type": "uint256"
        }
      ],
      "payable": false,
      "stateMutability": "view",
      "type": "function"
    },
    {
      "constant": true,
      "inputs": [
        {
          "name": "",
          "type": "uint256"
        }
      ],
      "name": "EMRMetas",
      "outputs": [
        {
          "name": "owner",
          "type": "uint256"
        },
        {
          "name": "timestamp",
          "type": "string"
        },
        {
          "name": "allowedRole",
          "type": "uint256"
        }
      ],
      "payable": false,
      "stateMutability": "view",
      "type": "function"
    },
    {
      "inputs": [],
      "payable": false,
      "stateMutability": "nonpayable",
      "type": "constructor"
    },
    {
      "anonymous": false,
      "inputs": [
        {
          "indexed": true,
          "name": "_owner",
          "type": "uint256"
        }
      ],
      "name": "updateMetaEvent",
      "type": "event"
    },
    {
      "constant": false,
      "inputs": [
        {
          "name": "_id",
          "type": "uint256"
        }
      ],
      "name": "getMeta",
      "outputs": [
        {
          "name": "",
          "type": "uint256"
        }
      ],
      "payable": false,
      "stateMutability": "nonpayable",
      "type": "function"
    },
    {
      "constant": false,
      "inputs": [
        {
          "name": "_owner",
          "type": "uint256"
        },
        {
          "name": "_timestamp",
          "type": "string"
        },
        {
          "name": "_allowedRole",
          "type": "uint256"
        }
      ],
      "name": "addMetas",
      "outputs": [],
      "payable": false,
      "stateMutability": "nonpayable",
      "type": "function"
    },
    {
      "constant": false,
      "inputs": [
        {
          "name": "_owner",
          "type": "uint256"
        }
      ],
      "name": "updateMetas",
      "outputs": [],
      "payable": false,
      "stateMutability": "nonpayable",
      "type": "function"
    }
  ],
  "bytecode": "0x608060405234801561001057600080fd5b506100636040805190810160405280600581526020017f416c696365000000000000000000000000000000000000000000000000000000815250610378600161015c640100000000026401000000009004565b6100b46040805190810160405280600381526020017f426f6200000000000000000000000000000000000000000000000000000000008152506057600461015c640100000000026401000000009004565b610105607b6040805190810160405280600881526020017f323031383131313800000000000000000000000000000000000000000000000081525060016101d8640100000000026401000000009004565b6101576101c86040805190810160405280600881526020017f323031383131313900000000000000000000000000000000000000000000000081525060046101d8640100000000026401000000009004565b6102f8565b6003600081548092919060010191905055506060604051908101604052808481526020018381526020018281525060026000600354815260200190815260200160002060008201518160000190805190602001906101bb929190610253565b506020820151816001015560408201518160020155905050505050565b600160008154809291906001019190505550606060405190810160405280848152602001838152602001828152506000806001548152602001908152602001600020600082015181600001556020820151816001019080519060200190610240929190610253565b5060408201518160020155905050505050565b828054600181600116156101000203166002900490600052602060002090601f016020900481019282601f1061029457805160ff19168380011785556102c2565b828001600101855582156102c2579182015b828111156102c15782518255916020019190600101906102a6565b5b5090506102cf91906102d3565b5090565b6102f591905b808211156102f15760008160009055506001016102d9565b5090565b90565b6106e3806103076000396000f300608060405260043610610083576000357c0100000000000000000000000000000000000000000000000000000000900463ffffffff168063365b98b21461008857806336dac2cc1461013c5780633e968bdf1461017d5780636202d746146101fa5780636ba13a8214610227578063f9ea838914610252578063feb689591461027d575b600080fd5b34801561009457600080fd5b506100b360048036038101908080359060200190929190505050610331565b6040518080602001848152602001838152602001828103825285818151815260200191508051906020019080838360005b838110156100ff5780820151818401526020810190506100e4565b50505050905090810190601f16801561012c5780820380516001836020036101000a031916815260200191505b5094505050505060405180910390f35b34801561014857600080fd5b50610167600480360381019080803590602001909291905050506103f3565b6040518082815260200191505060405180910390f35b34801561018957600080fd5b506101f860048036038101908080359060200190929190803590602001908201803590602001908080601f016020809104026020016040519081016040528093929190818152602001838380828437820191505050505050919291929080359060200190929190505050610440565b005b34801561020657600080fd5b50610225600480360381019080803590602001909291905050506104bb565b005b34801561023357600080fd5b5061023c610544565b6040518082815260200191505060405180910390f35b34801561025e57600080fd5b5061026761054a565b6040518082815260200191505060405180910390f35b34801561028957600080fd5b506102a860048036038101908080359060200190929190505050610550565b6040518084815260200180602001838152602001828103825284818151815260200191508051906020019080838360005b838110156102f45780820151818401526020810190506102d9565b50505050905090810190601f1680156103215780820380516001836020036101000a031916815260200191505b5094505050505060405180910390f35b6002602052806000526040600020600091509050806000018054600181600116156101000203166002900480601f0160208091040260200160405190810160405280929190818152602001828054600181600116156101000203166002900480156103dd5780601f106103b2576101008083540402835291602001916103dd565b820191906000526020600020905b8154815290600101906020018083116103c057829003601f168201915b5050505050908060010154908060020154905083565b600080600190505b60015481111515610439578260008083815260200190815260200160002060000154141561042c576001915061043a565b80806001019150506103fb565b5b50919050565b6001600081548092919060010191905055506060604051908101604052808481526020018381526020018281525060008060015481526020019081526020016000206000820151816000015560208201518160010190805190602001906104a8929190610612565b5060408201518160020155905050505050565b6000600190505b600154811115156105135781600080838152602001908152602001600020600001541415610506576003600080838152602001908152602001600020600201819055505b80806001019150506104c2565b817f4fdc55c4adedf850bc3a09c67ac316fe2a76bb94352f43c0b36d758f14df111560405160405180910390a25050565b60035481565b60015481565b6000602052806000526040600020600091509050806000015490806001018054600181600116156101000203166002900480601f0160208091040260200160405190810160405280929190818152602001828054600181600116156101000203166002900480156106025780601f106105d757610100808354040283529160200191610602565b820191906000526020600020905b8154815290600101906020018083116105e557829003601f168201915b5050505050908060020154905083565b828054600181600116156101000203166002900490600052602060002090601f016020900481019282601f1061065357805160ff1916838001178555610681565b82800160010185558215610681579182015b82811115610680578251825591602001919060010190610665565b5b50905061068e9190610692565b5090565b6106b491905b808211156106b0576000816000905550600101610698565b5090565b905600a165627a7a72305820f28b31051583b62121a63305abec3280b3bcda787b8d1690af4751a1bea81f570029",
  "source": "pragma solidity  ^0.4.24;\n\ncontract queryMeta {\n\n    //Model metadata of EMR\n    struct EMRMeta {\n        uint owner; //patient ID; public will have getter and setter function automatically\n        string timestamp;\n        uint allowedRole;\n        //struct updateInfo;\n              /* should contain tag to show update or not (modified/origin);\n               * who (has/have) updated;\n               * where modified;\n               * which peers already updated;\n               * some other metadata about dejima;\n               * current state of dejima;\n               */\n        // declare dejimaPeers; //An array to store the peers who share the dejima relating to the metadata\n    }\n\n    //Store EMRMetas\n    mapping (uint => EMRMeta) public EMRMetas;\n    //store EMRMetas count\n    uint public EMRMetasCount;\n\n    struct User{\n      string name; //name of doctor or patient\n      uint id;\n      uint roleNum; /*\n                    consider doctor only for the time being:\n                      1 -> doctor\n                      2 -> analyzer\n                      3 -> insurance\n                      4->  patient\n                        */\n    }\n\n    //Store　roles\n    mapping (uint => User) public users;\n    //store EMRMetas count\n    uint public usersCount;\n\n    //update EMRMeta event\n    event updateMetaEvent (\n        uint indexed _owner\n    );\n\n\n    /*\n     * Contructor, will run whenever we deploy the contract to the blockchain\n     * (initialized contract upon migration)\n     * same name as the contract\n    */\n    function queryMeta () public {\n           //initialize users directly\n           //users[0] = User(\"Alice\", 888, 1); //doctor\n           //users[1] = User(\"Bob\", 87, 4); //a patient\n\n           addUser(\"Alice\", 888, 1);//doctor\n           addUser(\"Bob\", 87, 4);//a patient\n\n           //initialize EMRMetas directly\n           //EMRMetas[0] = EMRMeta(123, \"20181118\", 1);\n           //EMRMetas[1] = EMRMeta(456, \"20181119\", 4);\n\n           addMetas(123, \"20181118\", 1);\n           addMetas(456, \"20181119\", 4);\n    }\n\n\n    //return an object by given patient ID\n    function getMeta(uint _id) public returns(uint) {\n      for (uint i = 1; i <= EMRMetasCount; i++)\n      {\n         if(EMRMetas[i].owner == _id) \n                return 1;\n      }\n    }\n\n\n    //add a new medical metadata\n    function addMetas (uint _owner, string _timestamp, uint _allowedRole) public{\n        //addMetas　string _timestamp can be get automatically later (solidity date)\n\n        //check role to be allowed to addEMRMetas\n        //require(roles[msg.sender] == 1); //only a doctor can addEMRMetas now\n        //here msg.sender is an address, msg.sender to identify the address of who calling this function\n\n        /********************************************************************************/\n        /*******Here we should consider to add \"medical data\" to cloud (dejima)**********/\n        /********************************************************************************/\n\n        EMRMetasCount ++;\n\n        EMRMetas[EMRMetasCount] = EMRMeta(_owner, _timestamp, _allowedRole);\n\n    }\n\n    //add a new person who belongs a role\n    function addUser (string _name, uint _id, uint _roleNum) private\n    {\n      //check the priviledge to add User\n\n      // add users in the cloud\n\n      usersCount ++;\n\n      users[usersCount] = User(_name, _id, _roleNum);\n\n    }\n\n    //update an existing medical metadata, suppose will change the allowedRole\n    function updateMetas (uint _owner) public\n    {\n        //updateMetas　string _timestamp can be get automatically later\n\n        //check role to be allowed to updateEMRMetas\n        //require(roles[msg.sender] == 1); //only a doctor can updateEMRMetas now\n        //here msg.sender is an address, msg.sender to identify the address of who calling this function\n\n        /********************************************************************************/\n        /*******Here we should consider to update \"medical data\" to cloud (dejima)**********/\n        /********************************************************************************/\n\n        for (uint i = 1; i <= EMRMetasCount; i++)\n        {\n           if(EMRMetas[i].owner == _owner)\n             EMRMetas[i].allowedRole = 3;\n        }\n\n        // trigger updateMeta　Event\n        updateMetaEvent(_owner);\n    }\n\n    /*deleteEMRMetas string _timestamp can be get automatically later\n    function deleteEMRMetas (uint _owner, string _timestamp) private{\n\n        //check role to be allowed to deleteEMRMetas\n        require(roles[msg.sender] == 1); //only a doctor can deleteEMRMetas now\n\n        /********************************************************************************/\n        /*******Here we should consider to delete \"medical data\" to cloud (dejima)*******/\n        /********************************************************************************/\n\n        /*\n          If a metadata is deleted, the owner ID is assigned to 0\n          (if this, later will need to fresh EMRMetas to remove unuseful EMRMetas)\n\n\n        //search EMRMetas using _owner\n\n        //assign 0 to this _owner field\n\n        //decrement the EMRMetasCount by 1\n\n    }*/\n}\n",
  "sourcePath": "/Users/lichunmiao/Desktop/EMD-BlockDejima/contracts/queryMeta.sol",
  "compiler": {
    "name": "solc",
    "version": "0.4.24+commit.e67f0147.Emscripten.clang"
  },
  "schemaVersion": "2.0.1",
  "updatedAt": "2018-11-25T14:51:49.526Z"
}